:1000000016C030C02FC076C02EC02CC02BC02AC056
:1000100029C028C027C026C025C024C023C000385E
:10002000003701010101010101020408102011241F
:100030001FBECFE5D2E0DEBFCDBF10E0A0E6B0E04E
:10004000E2EBF2E002C005900D92A036B107D9F7BD
:1000500020E0A0E6B0E001C01D92A936B207E1F7AA
:100060005BD025C1CDCF78941F920F920FB60F921F
:1000700011242F933F938F939F93AF93BF938091BE
:10008000650090916600A0916700B0916800309182
:1000900064002CE7230F2D3728F02FEF230F019654
:1000A000A11DB11D209364008093650090936600AC
:1000B000A0936700B0936800809160009091610008
:1000C000A0916200B09163000196A11DB11D8093C3
:1000D000600090936100A0936200B0936300BF91B1
:1000E000AF919F918F913F912F910F900FBE0F90E5
:1000F0001F9018951F920F920FB60F9211248F9395
:100100009F9398B383E0892788BB9F918F910F902D
:100110000FBE0F901F901895789480B7806880BFAD
:1001200080B7806480BF8CB580648CBD8FEF8DBD3F
:1001300080B7807F876080BF89B7846089BF83B7BD
:10014000887F83BF8AB58C7F81608ABD83B7877FB4
:1001500083BF83B7887F836083BF86B1876086B99A
:10016000379A83E087BB82E088BBEFE2F0E024911E
:10017000E9E2F0E0E491EE2399F08E2F90E0FC01AB
:10018000E05EFF4FA491B0E0FC01E25EFF4F84917E
:100190009FB7F8948C91E22FE095E823EC939FBFF2
:1001A000F89481EC80BF1CBC1FBC8CEC8DBD80E43E
:1001B00089BF789480ECC82E83E0D82EE12CF12CF6
:1001C00087B18F7287B987B1807F816087B9369A8E
:1001D0003699FECF64B175B1072E000C880B990BD0
:1001E00020E330E040E050E00BD0A701960121D0A1
:1001F000DA01C9018D549F4FAF4FBF4F8DBDE0CF86
:10020000EE27FF27AA27BB2708C0A20FB31FE41FB2
:10021000F51F220F331F441F551F9695879577951D
:10022000679598F37040A9F7009799F7BD01CF0142
:100230000895052E97FB16F400940FD057FD05D0B6
:1002400014D007FC02D046F408C050954095309574
:1002500021953F4F4F4F5F4F089590958095709532
:1002600061957F4F8F4F9F4F0895A1E21A2EAA1BD1
:10027000BB1BFD010DC0AA1FBB1FEE1FFF1FA21756
:10028000B307E407F50720F0A21BB30BE40BF50B53
:10029000661F771F881F991F1A9469F760957095DC
:1002A000809590959B01AC01BD01CF010895F89414
:0202B000FFCF7E
:00000001FF
